{
  "address": "0x832e4d3319C8aFE44f8149c7b402b535563E058e",
  "abi": [
    {
      "inputs": [],
      "stateMutability": "nonpayable",
      "type": "constructor"
    },
    {
      "anonymous": false,
      "inputs": [
        {
          "indexed": false,
          "internalType": "address",
          "name": "previousAdmin",
          "type": "address"
        },
        {
          "indexed": false,
          "internalType": "address",
          "name": "newAdmin",
          "type": "address"
        }
      ],
      "name": "AdminChanged",
      "type": "event"
    },
    {
      "anonymous": false,
      "inputs": [
        {
          "indexed": true,
          "internalType": "address",
          "name": "owner",
          "type": "address"
        },
        {
          "indexed": true,
          "internalType": "address",
          "name": "spender",
          "type": "address"
        },
        {
          "indexed": false,
          "internalType": "uint256",
          "name": "value",
          "type": "uint256"
        }
      ],
      "name": "Approval",
      "type": "event"
    },
    {
      "anonymous": false,
      "inputs": [
        {
          "indexed": true,
          "internalType": "address",
          "name": "beacon",
          "type": "address"
        }
      ],
      "name": "BeaconUpgraded",
      "type": "event"
    },
    {
      "anonymous": false,
      "inputs": [
        {
          "indexed": true,
          "internalType": "bytes32",
          "name": "role",
          "type": "bytes32"
        },
        {
          "indexed": true,
          "internalType": "bytes32",
          "name": "previousAdminRole",
          "type": "bytes32"
        },
        {
          "indexed": true,
          "internalType": "bytes32",
          "name": "newAdminRole",
          "type": "bytes32"
        }
      ],
      "name": "RoleAdminChanged",
      "type": "event"
    },
    {
      "anonymous": false,
      "inputs": [
        {
          "indexed": true,
          "internalType": "bytes32",
          "name": "role",
          "type": "bytes32"
        },
        {
          "indexed": true,
          "internalType": "address",
          "name": "account",
          "type": "address"
        },
        {
          "indexed": true,
          "internalType": "address",
          "name": "sender",
          "type": "address"
        }
      ],
      "name": "RoleGranted",
      "type": "event"
    },
    {
      "anonymous": false,
      "inputs": [
        {
          "indexed": true,
          "internalType": "bytes32",
          "name": "role",
          "type": "bytes32"
        },
        {
          "indexed": true,
          "internalType": "address",
          "name": "account",
          "type": "address"
        },
        {
          "indexed": true,
          "internalType": "address",
          "name": "sender",
          "type": "address"
        }
      ],
      "name": "RoleRevoked",
      "type": "event"
    },
    {
      "anonymous": false,
      "inputs": [
        {
          "indexed": true,
          "internalType": "address",
          "name": "from",
          "type": "address"
        },
        {
          "indexed": true,
          "internalType": "address",
          "name": "to",
          "type": "address"
        },
        {
          "indexed": false,
          "internalType": "uint256",
          "name": "value",
          "type": "uint256"
        }
      ],
      "name": "Transfer",
      "type": "event"
    },
    {
      "anonymous": false,
      "inputs": [
        {
          "indexed": true,
          "internalType": "address",
          "name": "implementation",
          "type": "address"
        }
      ],
      "name": "Upgraded",
      "type": "event"
    },
    {
      "inputs": [],
      "name": "DEFAULT_ADMIN_ROLE",
      "outputs": [
        {
          "internalType": "bytes32",
          "name": "",
          "type": "bytes32"
        }
      ],
      "stateMutability": "view",
      "type": "function"
    },
    {
      "inputs": [],
      "name": "DOMAIN_SEPARATOR",
      "outputs": [
        {
          "internalType": "bytes32",
          "name": "",
          "type": "bytes32"
        }
      ],
      "stateMutability": "view",
      "type": "function"
    },
    {
      "inputs": [],
      "name": "UPGRADER_ROLE",
      "outputs": [
        {
          "internalType": "bytes32",
          "name": "",
          "type": "bytes32"
        }
      ],
      "stateMutability": "view",
      "type": "function"
    },
    {
      "inputs": [
        {
          "internalType": "address",
          "name": "owner",
          "type": "address"
        },
        {
          "internalType": "address",
          "name": "spender",
          "type": "address"
        }
      ],
      "name": "allowance",
      "outputs": [
        {
          "internalType": "uint256",
          "name": "",
          "type": "uint256"
        }
      ],
      "stateMutability": "view",
      "type": "function"
    },
    {
      "inputs": [
        {
          "internalType": "address",
          "name": "spender",
          "type": "address"
        },
        {
          "internalType": "uint256",
          "name": "amount",
          "type": "uint256"
        }
      ],
      "name": "approve",
      "outputs": [
        {
          "internalType": "bool",
          "name": "",
          "type": "bool"
        }
      ],
      "stateMutability": "nonpayable",
      "type": "function"
    },
    {
      "inputs": [
        {
          "internalType": "address",
          "name": "account",
          "type": "address"
        }
      ],
      "name": "balanceOf",
      "outputs": [
        {
          "internalType": "uint256",
          "name": "",
          "type": "uint256"
        }
      ],
      "stateMutability": "view",
      "type": "function"
    },
    {
      "inputs": [],
      "name": "decimals",
      "outputs": [
        {
          "internalType": "uint8",
          "name": "",
          "type": "uint8"
        }
      ],
      "stateMutability": "view",
      "type": "function"
    },
    {
      "inputs": [
        {
          "internalType": "address",
          "name": "spender",
          "type": "address"
        },
        {
          "internalType": "uint256",
          "name": "subtractedValue",
          "type": "uint256"
        }
      ],
      "name": "decreaseAllowance",
      "outputs": [
        {
          "internalType": "bool",
          "name": "",
          "type": "bool"
        }
      ],
      "stateMutability": "nonpayable",
      "type": "function"
    },
    {
      "inputs": [
        {
          "internalType": "bytes32",
          "name": "role",
          "type": "bytes32"
        }
      ],
      "name": "getRoleAdmin",
      "outputs": [
        {
          "internalType": "bytes32",
          "name": "",
          "type": "bytes32"
        }
      ],
      "stateMutability": "view",
      "type": "function"
    },
    {
      "inputs": [
        {
          "internalType": "bytes32",
          "name": "role",
          "type": "bytes32"
        },
        {
          "internalType": "address",
          "name": "account",
          "type": "address"
        }
      ],
      "name": "grantRole",
      "outputs": [],
      "stateMutability": "nonpayable",
      "type": "function"
    },
    {
      "inputs": [
        {
          "internalType": "bytes32",
          "name": "role",
          "type": "bytes32"
        },
        {
          "internalType": "address",
          "name": "account",
          "type": "address"
        }
      ],
      "name": "hasRole",
      "outputs": [
        {
          "internalType": "bool",
          "name": "",
          "type": "bool"
        }
      ],
      "stateMutability": "view",
      "type": "function"
    },
    {
      "inputs": [
        {
          "internalType": "address",
          "name": "spender",
          "type": "address"
        },
        {
          "internalType": "uint256",
          "name": "addedValue",
          "type": "uint256"
        }
      ],
      "name": "increaseAllowance",
      "outputs": [
        {
          "internalType": "bool",
          "name": "",
          "type": "bool"
        }
      ],
      "stateMutability": "nonpayable",
      "type": "function"
    },
    {
      "inputs": [
        {
          "internalType": "address",
          "name": "owner",
          "type": "address"
        }
      ],
      "name": "initialize",
      "outputs": [],
      "stateMutability": "nonpayable",
      "type": "function"
    },
    {
      "inputs": [],
      "name": "name",
      "outputs": [
        {
          "internalType": "string",
          "name": "",
          "type": "string"
        }
      ],
      "stateMutability": "view",
      "type": "function"
    },
    {
      "inputs": [
        {
          "internalType": "address",
          "name": "owner",
          "type": "address"
        }
      ],
      "name": "nonces",
      "outputs": [
        {
          "internalType": "uint256",
          "name": "",
          "type": "uint256"
        }
      ],
      "stateMutability": "view",
      "type": "function"
    },
    {
      "inputs": [
        {
          "internalType": "address",
          "name": "owner",
          "type": "address"
        },
        {
          "internalType": "address",
          "name": "spender",
          "type": "address"
        },
        {
          "internalType": "uint256",
          "name": "value",
          "type": "uint256"
        },
        {
          "internalType": "uint256",
          "name": "deadline",
          "type": "uint256"
        },
        {
          "internalType": "uint8",
          "name": "v",
          "type": "uint8"
        },
        {
          "internalType": "bytes32",
          "name": "r",
          "type": "bytes32"
        },
        {
          "internalType": "bytes32",
          "name": "s",
          "type": "bytes32"
        }
      ],
      "name": "permit",
      "outputs": [],
      "stateMutability": "nonpayable",
      "type": "function"
    },
    {
      "inputs": [],
      "name": "proxiableUUID",
      "outputs": [
        {
          "internalType": "bytes32",
          "name": "",
          "type": "bytes32"
        }
      ],
      "stateMutability": "view",
      "type": "function"
    },
    {
      "inputs": [
        {
          "internalType": "bytes32",
          "name": "role",
          "type": "bytes32"
        },
        {
          "internalType": "address",
          "name": "account",
          "type": "address"
        }
      ],
      "name": "renounceRole",
      "outputs": [],
      "stateMutability": "nonpayable",
      "type": "function"
    },
    {
      "inputs": [
        {
          "internalType": "bytes32",
          "name": "role",
          "type": "bytes32"
        },
        {
          "internalType": "address",
          "name": "account",
          "type": "address"
        }
      ],
      "name": "revokeRole",
      "outputs": [],
      "stateMutability": "nonpayable",
      "type": "function"
    },
    {
      "inputs": [
        {
          "internalType": "bytes4",
          "name": "interfaceId",
          "type": "bytes4"
        }
      ],
      "name": "supportsInterface",
      "outputs": [
        {
          "internalType": "bool",
          "name": "",
          "type": "bool"
        }
      ],
      "stateMutability": "view",
      "type": "function"
    },
    {
      "inputs": [],
      "name": "symbol",
      "outputs": [
        {
          "internalType": "string",
          "name": "",
          "type": "string"
        }
      ],
      "stateMutability": "view",
      "type": "function"
    },
    {
      "inputs": [],
      "name": "totalSupply",
      "outputs": [
        {
          "internalType": "uint256",
          "name": "",
          "type": "uint256"
        }
      ],
      "stateMutability": "view",
      "type": "function"
    },
    {
      "inputs": [
        {
          "internalType": "address",
          "name": "to",
          "type": "address"
        },
        {
          "internalType": "uint256",
          "name": "amount",
          "type": "uint256"
        }
      ],
      "name": "transfer",
      "outputs": [
        {
          "internalType": "bool",
          "name": "",
          "type": "bool"
        }
      ],
      "stateMutability": "nonpayable",
      "type": "function"
    },
    {
      "inputs": [
        {
          "internalType": "address",
          "name": "from",
          "type": "address"
        },
        {
          "internalType": "address",
          "name": "to",
          "type": "address"
        },
        {
          "internalType": "uint256",
          "name": "amount",
          "type": "uint256"
        }
      ],
      "name": "transferFrom",
      "outputs": [
        {
          "internalType": "bool",
          "name": "",
          "type": "bool"
        }
      ],
      "stateMutability": "nonpayable",
      "type": "function"
    },
    {
      "inputs": [
        {
          "internalType": "address",
          "name": "newImplementation",
          "type": "address"
        }
      ],
      "name": "upgradeTo",
      "outputs": [],
      "stateMutability": "nonpayable",
      "type": "function"
    },
    {
      "inputs": [
        {
          "internalType": "address",
          "name": "newImplementation",
          "type": "address"
        },
        {
          "internalType": "bytes",
          "name": "data",
          "type": "bytes"
        }
      ],
      "name": "upgradeToAndCall",
      "outputs": [],
      "stateMutability": "payable",
      "type": "function"
    }
  ],
  "numDeployments": 1,
  "solcInputHash": "e4d2a6fbba8ff65e2edef717a090230c",
  "bytecode": "0x60a06040523060601b6080523480156200001857600080fd5b50600054610100900460ff16620000365760005460ff161562000040565b62000040620000e5565b620000a85760405162461bcd60e51b815260206004820152602e60248201527f496e697469616c697a61626c653a20636f6e747261637420697320616c72656160448201526d191e481a5b9a5d1a585b1a5e995960921b606482015260840160405180910390fd5b600054610100900460ff16158015620000cb576000805461ffff19166101011790555b8015620000de576000805461ff00191690555b5062000112565b6000620000fd306200010360201b62000fa21760201c565b15905090565b6001600160a01b03163b151590565b60805160601c612a316200014d600039600081816107860152818161080b01528181610941015281816109c60152610aac0152612a316000f3fe6080604052600436106101a15760003560e01c806352d1902d116100e1578063a457c2d71161008a578063d505accf11610064578063d505accf1461048d578063d547741f146104ad578063dd62ed3e146104cd578063f72c0d8b1461051357600080fd5b8063a457c2d71461042d578063a9059cbb1461044d578063c4d66de81461046d57600080fd5b806391d14854116100bb57806391d14854146103bd57806395d89b4114610403578063a217fddf1461041857600080fd5b806352d1902d1461035257806370a08231146103675780637ecebe001461039d57600080fd5b80632f2ff15d1161014e57806336568abe1161012857806336568abe146102df5780633659cfe6146102ff578063395093511461031f5780634f1ef2861461033f57600080fd5b80632f2ff15d1461028c578063313ce567146102ae5780633644e515146102ca57600080fd5b806318160ddd1161017f57806318160ddd1461021d57806323b872dd1461023c578063248a9ca31461025c57600080fd5b806301ffc9a7146101a657806306fdde03146101db578063095ea7b3146101fd575b600080fd5b3480156101b257600080fd5b506101c66101c13660046126fb565b610547565b60405190151581526020015b60405180910390f35b3480156101e757600080fd5b506101f06105e0565b6040516101d291906127d8565b34801561020957600080fd5b506101c6610218366004612680565b610672565b34801561022957600080fd5b506035545b6040519081526020016101d2565b34801561024857600080fd5b506101c6610257366004612517565b61068a565b34801561026857600080fd5b5061022e6102773660046126a9565b600090815260fe602052604090206001015490565b34801561029857600080fd5b506102ac6102a73660046126d9565b6106b0565b005b3480156102ba57600080fd5b50604051601281526020016101d2565b3480156102d657600080fd5b5061022e6106db565b3480156102eb57600080fd5b506102ac6102fa3660046126d9565b6106ea565b34801561030b57600080fd5b506102ac61031a3660046124cb565b61077b565b34801561032b57600080fd5b506101c661033a366004612680565b6108f7565b6102ac61034d3660046125c3565b610936565b34801561035e57600080fd5b5061022e610a9f565b34801561037357600080fd5b5061022e6103823660046124cb565b6001600160a01b031660009081526033602052604090205490565b3480156103a957600080fd5b5061022e6103b83660046124cb565b610b64565b3480156103c957600080fd5b506101c66103d83660046126d9565b600091825260fe602090815260408084206001600160a01b0393909316845291905290205460ff1690565b34801561040f57600080fd5b506101f0610b82565b34801561042457600080fd5b5061022e600081565b34801561043957600080fd5b506101c6610448366004612680565b610b91565b34801561045957600080fd5b506101c6610468366004612680565b610c46565b34801561047957600080fd5b506102ac6104883660046124cb565b610c54565b34801561049957600080fd5b506102ac6104a8366004612552565b610e36565b3480156104b957600080fd5b506102ac6104c83660046126d9565b610f7c565b3480156104d957600080fd5b5061022e6104e83660046124e5565b6001600160a01b03918216600090815260346020908152604080832093909416825291909152205490565b34801561051f57600080fd5b5061022e7f189ab7a9244df0848122154315af71fe140f3db0fe014031783b0946b8c9d2e381565b60007fffffffff0000000000000000000000000000000000000000000000000000000082167f7965db0b0000000000000000000000000000000000000000000000000000000014806105da57507f01ffc9a7000000000000000000000000000000000000000000000000000000007fffffffff000000000000000000000000000000000000000000000000000000008316145b92915050565b6060603680546105ef90612973565b80601f016020809104026020016040519081016040528092919081815260200182805461061b90612973565b80156106685780601f1061063d57610100808354040283529160200191610668565b820191906000526020600020905b81548152906001019060200180831161064b57829003601f168201915b5050505050905090565b600033610680818585610fb1565b5060019392505050565b600033610698858285611109565b6106a385858561119b565b60019150505b9392505050565b600082815260fe60205260409020600101546106cc81336113b2565b6106d68383611432565b505050565b60006106e56114d4565b905090565b6001600160a01b038116331461076d5760405162461bcd60e51b815260206004820152602f60248201527f416363657373436f6e74726f6c3a2063616e206f6e6c792072656e6f756e636560448201527f20726f6c657320666f722073656c66000000000000000000000000000000000060648201526084015b60405180910390fd5b610777828261154f565b5050565b306001600160a01b037f00000000000000000000000000000000000000000000000000000000000000001614156108095760405162461bcd60e51b815260206004820152602c60248201527f46756e6374696f6e206d7573742062652063616c6c6564207468726f7567682060448201526b19195b1959d85d1958d85b1b60a21b6064820152608401610764565b7f00000000000000000000000000000000000000000000000000000000000000006001600160a01b03166108647f360894a13ba1a3210667c828492db98dca3e2076cc3735a920a3ca505d382bbc546001600160a01b031690565b6001600160a01b0316146108cf5760405162461bcd60e51b815260206004820152602c60248201527f46756e6374696f6e206d7573742062652063616c6c6564207468726f7567682060448201526b6163746976652070726f787960a01b6064820152608401610764565b6108d8816115d2565b604080516000808252602082019092526108f4918391906115fd565b50565b3360008181526034602090815260408083206001600160a01b0387168452909152812054909190610680908290869061093190879061280b565b610fb1565b306001600160a01b037f00000000000000000000000000000000000000000000000000000000000000001614156109c45760405162461bcd60e51b815260206004820152602c60248201527f46756e6374696f6e206d7573742062652063616c6c6564207468726f7567682060448201526b19195b1959d85d1958d85b1b60a21b6064820152608401610764565b7f00000000000000000000000000000000000000000000000000000000000000006001600160a01b0316610a1f7f360894a13ba1a3210667c828492db98dca3e2076cc3735a920a3ca505d382bbc546001600160a01b031690565b6001600160a01b031614610a8a5760405162461bcd60e51b815260206004820152602c60248201527f46756e6374696f6e206d7573742062652063616c6c6564207468726f7567682060448201526b6163746976652070726f787960a01b6064820152608401610764565b610a93826115d2565b610777828260016115fd565b6000306001600160a01b037f00000000000000000000000000000000000000000000000000000000000000001614610b3f5760405162461bcd60e51b815260206004820152603860248201527f555550535570677261646561626c653a206d757374206e6f742062652063616c60448201527f6c6564207468726f7567682064656c656761746563616c6c00000000000000006064820152608401610764565b507f360894a13ba1a3210667c828492db98dca3e2076cc3735a920a3ca505d382bbc90565b6001600160a01b0381166000908152609960205260408120546105da565b6060603780546105ef90612973565b3360008181526034602090815260408083206001600160a01b038716845290915281205490919083811015610c2e5760405162461bcd60e51b815260206004820152602560248201527f45524332303a2064656372656173656420616c6c6f77616e63652062656c6f7760448201527f207a65726f0000000000000000000000000000000000000000000000000000006064820152608401610764565b610c3b8286868403610fb1565b506001949350505050565b60003361068081858561119b565b600054610100900460ff16610c6f5760005460ff1615610c73565b303b155b610ce55760405162461bcd60e51b815260206004820152602e60248201527f496e697469616c697a61626c653a20636f6e747261637420697320616c72656160448201527f647920696e697469616c697a65640000000000000000000000000000000000006064820152608401610764565b600054610100900460ff16158015610d07576000805461ffff19166101011790555b610d7b6040518060400160405280600e81526020017f41706f637279706820546f6b656e0000000000000000000000000000000000008152506040518060400160405280600581526020017f43525950480000000000000000000000000000000000000000000000000000008152506117ac565b610db96040518060400160405280600e81526020017f41706f637279706820546f6b656e000000000000000000000000000000000000815250611821565b610dc16118d4565b610dc96118d4565b610dec82610dd96012600a612866565b610de790633b9aca00612911565b611941565b610df7600083611432565b610e217f189ab7a9244df0848122154315af71fe140f3db0fe014031783b0946b8c9d2e383611432565b8015610777576000805461ff00191690555050565b83421115610e865760405162461bcd60e51b815260206004820152601d60248201527f45524332305065726d69743a206578706972656420646561646c696e650000006044820152606401610764565b6000609a54888888610e978c611a20565b6040805160208101969096526001600160a01b0394851690860152929091166060840152608083015260a082015260c0810186905260e0016040516020818303038152906040528051906020012090506000610ef282611a48565b90506000610f0282878787611ab1565b9050896001600160a01b0316816001600160a01b031614610f655760405162461bcd60e51b815260206004820152601e60248201527f45524332305065726d69743a20696e76616c6964207369676e617475726500006044820152606401610764565b610f708a8a8a610fb1565b50505050505050505050565b600082815260fe6020526040902060010154610f9881336113b2565b6106d6838361154f565b6001600160a01b03163b151590565b6001600160a01b03831661102c5760405162461bcd60e51b8152602060048201526024808201527f45524332303a20617070726f76652066726f6d20746865207a65726f2061646460448201527f72657373000000000000000000000000000000000000000000000000000000006064820152608401610764565b6001600160a01b0382166110a85760405162461bcd60e51b815260206004820152602260248201527f45524332303a20617070726f766520746f20746865207a65726f20616464726560448201527f73730000000000000000000000000000000000000000000000000000000000006064820152608401610764565b6001600160a01b0383811660008181526034602090815260408083209487168084529482529182902085905590518481527f8c5be1e5ebec7d5bd14f71427d1e84f3dd0314c0f7b2291e5b200ac8c7c3b925910160405180910390a3505050565b6001600160a01b03838116600090815260346020908152604080832093861683529290522054600019811461119557818110156111885760405162461bcd60e51b815260206004820152601d60248201527f45524332303a20696e73756666696369656e7420616c6c6f77616e63650000006044820152606401610764565b6111958484848403610fb1565b50505050565b6001600160a01b0383166112175760405162461bcd60e51b815260206004820152602560248201527f45524332303a207472616e736665722066726f6d20746865207a65726f20616460448201527f64726573730000000000000000000000000000000000000000000000000000006064820152608401610764565b6001600160a01b0382166112935760405162461bcd60e51b815260206004820152602360248201527f45524332303a207472616e7366657220746f20746865207a65726f206164647260448201527f65737300000000000000000000000000000000000000000000000000000000006064820152608401610764565b6001600160a01b038316600090815260336020526040902054818110156113225760405162461bcd60e51b815260206004820152602660248201527f45524332303a207472616e7366657220616d6f756e742065786365656473206260448201527f616c616e636500000000000000000000000000000000000000000000000000006064820152608401610764565b6001600160a01b0380851660009081526033602052604080822085850390559185168152908120805484929061135990849061280b565b92505081905550826001600160a01b0316846001600160a01b03167fddf252ad1be2c89b69c2b068fc378daa952ba7f163c4a11628f55a4df523b3ef846040516113a591815260200190565b60405180910390a3611195565b600082815260fe602090815260408083206001600160a01b038516845290915290205460ff16610777576113f0816001600160a01b03166014611ad9565b6113fb836020611ad9565b60405160200161140c929190612757565b60408051601f198184030181529082905262461bcd60e51b8252610764916004016127d8565b600082815260fe602090815260408083206001600160a01b038516845290915290205460ff1661077757600082815260fe602090815260408083206001600160a01b03851684529091529020805460ff191660011790556114903390565b6001600160a01b0316816001600160a01b0316837f2f8788117e7eff1d82e926ec794901d17c78024a50270940304540a733656f0d60405160405180910390a45050565b60006106e57f8b73c3c69bb8fe3d512ecc4cf759cc79239f7b179b0ffacaa9a75d522b39400f61150360655490565b6066546040805160208101859052908101839052606081018290524660808201523060a082015260009060c0016040516020818303038152906040528051906020012090509392505050565b600082815260fe602090815260408083206001600160a01b038516845290915290205460ff161561077757600082815260fe602090815260408083206001600160a01b0385168085529252808320805460ff1916905551339285917ff6391f5c32d9c69d2a47ea670b442974b53935d1edc7fd64eb21e047a839171b9190a45050565b7f189ab7a9244df0848122154315af71fe140f3db0fe014031783b0946b8c9d2e361077781336113b2565b7f4910fdfa16fed3260ed0e7147f7cc6da11a60208b5b9406d12a635614ffd91435460ff1615611630576106d683611d00565b826001600160a01b03166352d1902d6040518163ffffffff1660e01b815260040160206040518083038186803b15801561166957600080fd5b505afa925050508015611699575060408051601f3d908101601f19168201909252611696918101906126c1565b60015b61170b5760405162461bcd60e51b815260206004820152602e60248201527f45524331393637557067726164653a206e657720696d706c656d656e7461746960448201527f6f6e206973206e6f7420555550530000000000000000000000000000000000006064820152608401610764565b7f360894a13ba1a3210667c828492db98dca3e2076cc3735a920a3ca505d382bbc81146117a05760405162461bcd60e51b815260206004820152602960248201527f45524331393637557067726164653a20756e737570706f727465642070726f7860448201527f6961626c655555494400000000000000000000000000000000000000000000006064820152608401610764565b506106d6838383611dd6565b600054610100900460ff166118175760405162461bcd60e51b815260206004820152602b60248201527f496e697469616c697a61626c653a20636f6e7472616374206973206e6f74206960448201526a6e697469616c697a696e6760a81b6064820152608401610764565b6107778282611dfb565b600054610100900460ff1661188c5760405162461bcd60e51b815260206004820152602b60248201527f496e697469616c697a61626c653a20636f6e7472616374206973206e6f74206960448201526a6e697469616c697a696e6760a81b6064820152608401610764565b6118cb816040518060400160405280600181526020017f3100000000000000000000000000000000000000000000000000000000000000815250611e8d565b6108f481611f12565b600054610100900460ff1661193f5760405162461bcd60e51b815260206004820152602b60248201527f496e697469616c697a61626c653a20636f6e7472616374206973206e6f74206960448201526a6e697469616c697a696e6760a81b6064820152608401610764565b565b6001600160a01b0382166119975760405162461bcd60e51b815260206004820152601f60248201527f45524332303a206d696e7420746f20746865207a65726f2061646472657373006044820152606401610764565b80603560008282546119a9919061280b565b90915550506001600160a01b038216600090815260336020526040812080548392906119d690849061280b565b90915550506040518181526001600160a01b038316906000907fddf252ad1be2c89b69c2b068fc378daa952ba7f163c4a11628f55a4df523b3ef9060200160405180910390a35050565b6001600160a01b03811660009081526099602052604090208054600181018255905b50919050565b60006105da611a556114d4565b836040517f19010000000000000000000000000000000000000000000000000000000000006020820152602281018390526042810182905260009060620160405160208183030381529060405280519060200120905092915050565b6000806000611ac287878787611fa4565b91509150611acf81612091565b5095945050505050565b60606000611ae8836002612911565b611af390600261280b565b67ffffffffffffffff811115611b1957634e487b7160e01b600052604160045260246000fd5b6040519080825280601f01601f191660200182016040528015611b43576020820181803683370190505b5090507f300000000000000000000000000000000000000000000000000000000000000081600081518110611b8857634e487b7160e01b600052603260045260246000fd5b60200101906001600160f81b031916908160001a9053507f780000000000000000000000000000000000000000000000000000000000000081600181518110611be157634e487b7160e01b600052603260045260246000fd5b60200101906001600160f81b031916908160001a9053506000611c05846002612911565b611c1090600161280b565b90505b6001811115611cb1577f303132333435363738396162636465660000000000000000000000000000000085600f1660108110611c5f57634e487b7160e01b600052603260045260246000fd5b1a60f81b828281518110611c8357634e487b7160e01b600052603260045260246000fd5b60200101906001600160f81b031916908160001a90535060049490941c93611caa8161295c565b9050611c13565b5083156106a95760405162461bcd60e51b815260206004820181905260248201527f537472696e67733a20686578206c656e67746820696e73756666696369656e746044820152606401610764565b6001600160a01b0381163b611d7d5760405162461bcd60e51b815260206004820152602d60248201527f455243313936373a206e657720696d706c656d656e746174696f6e206973206e60448201527f6f74206120636f6e7472616374000000000000000000000000000000000000006064820152608401610764565b7f360894a13ba1a3210667c828492db98dca3e2076cc3735a920a3ca505d382bbc80547fffffffffffffffffffffffff0000000000000000000000000000000000000000166001600160a01b0392909216919091179055565b611ddf83612292565b600082511180611dec5750805b156106d65761119583836122d2565b600054610100900460ff16611e665760405162461bcd60e51b815260206004820152602b60248201527f496e697469616c697a61626c653a20636f6e7472616374206973206e6f74206960448201526a6e697469616c697a696e6760a81b6064820152608401610764565b8151611e79906036906020850190612416565b5080516106d6906037906020840190612416565b600054610100900460ff16611ef85760405162461bcd60e51b815260206004820152602b60248201527f496e697469616c697a61626c653a20636f6e7472616374206973206e6f74206960448201526a6e697469616c697a696e6760a81b6064820152608401610764565b815160209283012081519190920120606591909155606655565b600054610100900460ff16611f7d5760405162461bcd60e51b815260206004820152602b60248201527f496e697469616c697a61626c653a20636f6e7472616374206973206e6f74206960448201526a6e697469616c697a696e6760a81b6064820152608401610764565b507f6e71edae12b1b97f4d1f60370fef10105fa2faae0126114a169c64845d6126c9609a55565b6000807f7fffffffffffffffffffffffffffffff5d576e7357a4501ddfe92f46681b20a0831115611fdb5750600090506003612088565b8460ff16601b14158015611ff357508460ff16601c14155b156120045750600090506004612088565b6040805160008082526020820180845289905260ff881692820192909252606081018690526080810185905260019060a0016020604051602081039080840390855afa158015612058573d6000803e3d6000fd5b5050604051601f1901519150506001600160a01b03811661208157600060019250925050612088565b9150600090505b94509492505050565b60008160048111156120b357634e487b7160e01b600052602160045260246000fd5b14156120bc5750565b60018160048111156120de57634e487b7160e01b600052602160045260246000fd5b141561212c5760405162461bcd60e51b815260206004820152601860248201527f45434453413a20696e76616c6964207369676e617475726500000000000000006044820152606401610764565b600281600481111561214e57634e487b7160e01b600052602160045260246000fd5b141561219c5760405162461bcd60e51b815260206004820152601f60248201527f45434453413a20696e76616c6964207369676e6174757265206c656e677468006044820152606401610764565b60038160048111156121be57634e487b7160e01b600052602160045260246000fd5b14156122175760405162461bcd60e51b815260206004820152602260248201527f45434453413a20696e76616c6964207369676e6174757265202773272076616c604482015261756560f01b6064820152608401610764565b600481600481111561223957634e487b7160e01b600052602160045260246000fd5b14156108f45760405162461bcd60e51b815260206004820152602260248201527f45434453413a20696e76616c6964207369676e6174757265202776272076616c604482015261756560f01b6064820152608401610764565b61229b81611d00565b6040516001600160a01b038216907fbc7cd75a20ee27fd9adebab32041f755214dbc6bffa90cc0225b39da2e5c2d3b90600090a250565b60606001600160a01b0383163b6123515760405162461bcd60e51b815260206004820152602660248201527f416464726573733a2064656c65676174652063616c6c20746f206e6f6e2d636f60448201527f6e747261637400000000000000000000000000000000000000000000000000006064820152608401610764565b600080846001600160a01b03168460405161236c919061273b565b600060405180830381855af49150503d80600081146123a7576040519150601f19603f3d011682016040523d82523d6000602084013e6123ac565b606091505b50915091506123d482826040518060600160405280602781526020016129d5602791396123dd565b95945050505050565b606083156123ec5750816106a9565b8251156123fc5782518084602001fd5b8160405162461bcd60e51b815260040161076491906127d8565b82805461242290612973565b90600052602060002090601f016020900481019282612444576000855561248a565b82601f1061245d57805160ff191683800117855561248a565b8280016001018555821561248a579182015b8281111561248a57825182559160200191906001019061246f565b5061249692915061249a565b5090565b5b80821115612496576000815560010161249b565b80356001600160a01b03811681146124c657600080fd5b919050565b6000602082840312156124dc578081fd5b6106a9826124af565b600080604083850312156124f7578081fd5b612500836124af565b915061250e602084016124af565b90509250929050565b60008060006060848603121561252b578081fd5b612534846124af565b9250612542602085016124af565b9150604084013590509250925092565b600080600080600080600060e0888a03121561256c578283fd5b612575886124af565b9650612583602089016124af565b95506040880135945060608801359350608088013560ff811681146125a6578384fd5b9699959850939692959460a0840135945060c09093013592915050565b600080604083850312156125d5578182fd5b6125de836124af565b9150602083013567ffffffffffffffff808211156125fa578283fd5b818501915085601f83011261260d578283fd5b81358181111561261f5761261f6129be565b604051601f8201601f19908116603f01168101908382118183101715612647576126476129be565b8160405282815288602084870101111561265f578586fd5b82602086016020830137856020848301015280955050505050509250929050565b60008060408385031215612692578182fd5b61269b836124af565b946020939093013593505050565b6000602082840312156126ba578081fd5b5035919050565b6000602082840312156126d2578081fd5b5051919050565b600080604083850312156126eb578182fd5b8235915061250e602084016124af565b60006020828403121561270c578081fd5b81357fffffffff00000000000000000000000000000000000000000000000000000000811681146106a9578182fd5b6000825161274d818460208701612930565b9190910192915050565b7f416363657373436f6e74726f6c3a206163636f756e742000000000000000000081526000835161278f816017850160208801612930565b7f206973206d697373696e6720726f6c652000000000000000000000000000000060179184019182015283516127cc816028840160208801612930565b01602801949350505050565b60208152600082518060208401526127f7816040850160208701612930565b601f01601f19169190910160400192915050565b6000821982111561281e5761281e6129a8565b500190565b600181815b8085111561285e578160001904821115612844576128446129a8565b8085161561285157918102915b93841c9390800290612828565b509250929050565b60006106a960ff84168360008261287f575060016105da565b8161288c575060006105da565b81600181146128a257600281146128ac576128c8565b60019150506105da565b60ff8411156128bd576128bd6129a8565b50506001821b6105da565b5060208310610133831016604e8410600b84101617156128eb575081810a6105da565b6128f58383612823565b8060001904821115612909576129096129a8565b029392505050565b600081600019048311821515161561292b5761292b6129a8565b500290565b60005b8381101561294b578181015183820152602001612933565b838111156111955750506000910152565b60008161296b5761296b6129a8565b506000190190565b600181811c9082168061298757607f821691505b60208210811415611a4257634e487b7160e01b600052602260045260246000fd5b634e487b7160e01b600052601160045260246000fd5b634e487b7160e01b600052604160045260246000fdfe416464726573733a206c6f772d6c6576656c2064656c65676174652063616c6c206661696c6564a2646970667358221220e48040afb2894d46d14f03494bba55453e394ddb3589691fd122f00099effe4864736f6c63430008040033",
  "devdoc": {
    "custom:security-contact": "apocryph@comrade.coop",
    "kind": "dev",
    "methods": {
      "DOMAIN_SEPARATOR()": {
        "details": "See {IERC20Permit-DOMAIN_SEPARATOR}."
      },
      "allowance(address,address)": {
        "details": "See {IERC20-allowance}."
      },
      "approve(address,uint256)": {
        "details": "See {IERC20-approve}. NOTE: If `amount` is the maximum `uint256`, the allowance is not updated on `transferFrom`. This is semantically equivalent to an infinite approval. Requirements: - `spender` cannot be the zero address."
      },
      "balanceOf(address)": {
        "details": "See {IERC20-balanceOf}."
      },
      "constructor": {
        "custom:oz-upgrades-unsafe-allow": "constructor"
      },
      "decimals()": {
        "details": "Returns the number of decimals used to get its user representation. For example, if `decimals` equals `2`, a balance of `505` tokens should be displayed to a user as `5.05` (`505 / 10 ** 2`). Tokens usually opt for a value of 18, imitating the relationship between Ether and Wei. This is the value {ERC20} uses, unless this function is overridden; NOTE: This information is only used for _display_ purposes: it in no way affects any of the arithmetic of the contract, including {IERC20-balanceOf} and {IERC20-transfer}."
      },
      "decreaseAllowance(address,uint256)": {
        "details": "Atomically decreases the allowance granted to `spender` by the caller. This is an alternative to {approve} that can be used as a mitigation for problems described in {IERC20-approve}. Emits an {Approval} event indicating the updated allowance. Requirements: - `spender` cannot be the zero address. - `spender` must have allowance for the caller of at least `subtractedValue`."
      },
      "getRoleAdmin(bytes32)": {
        "details": "Returns the admin role that controls `role`. See {grantRole} and {revokeRole}. To change a role's admin, use {_setRoleAdmin}."
      },
      "grantRole(bytes32,address)": {
        "details": "Grants `role` to `account`. If `account` had not been already granted `role`, emits a {RoleGranted} event. Requirements: - the caller must have ``role``'s admin role."
      },
      "hasRole(bytes32,address)": {
        "details": "Returns `true` if `account` has been granted `role`."
      },
      "increaseAllowance(address,uint256)": {
        "details": "Atomically increases the allowance granted to `spender` by the caller. This is an alternative to {approve} that can be used as a mitigation for problems described in {IERC20-approve}. Emits an {Approval} event indicating the updated allowance. Requirements: - `spender` cannot be the zero address."
      },
      "name()": {
        "details": "Returns the name of the token."
      },
      "nonces(address)": {
        "details": "See {IERC20Permit-nonces}."
      },
      "permit(address,address,uint256,uint256,uint8,bytes32,bytes32)": {
        "details": "See {IERC20Permit-permit}."
      },
      "proxiableUUID()": {
        "details": "Implementation of the ERC1822 {proxiableUUID} function. This returns the storage slot used by the implementation. It is used to validate that the this implementation remains valid after an upgrade. IMPORTANT: A proxy pointing at a proxiable contract should not be considered proxiable itself, because this risks bricking a proxy that upgrades to it, by delegating to itself until out of gas. Thus it is critical that this function revert if invoked through a proxy. This is guaranteed by the `notDelegated` modifier."
      },
      "renounceRole(bytes32,address)": {
        "details": "Revokes `role` from the calling account. Roles are often managed via {grantRole} and {revokeRole}: this function's purpose is to provide a mechanism for accounts to lose their privileges if they are compromised (such as when a trusted device is misplaced). If the calling account had been revoked `role`, emits a {RoleRevoked} event. Requirements: - the caller must be `account`."
      },
      "revokeRole(bytes32,address)": {
        "details": "Revokes `role` from `account`. If `account` had been granted `role`, emits a {RoleRevoked} event. Requirements: - the caller must have ``role``'s admin role."
      },
      "supportsInterface(bytes4)": {
        "details": "See {IERC165-supportsInterface}."
      },
      "symbol()": {
        "details": "Returns the symbol of the token, usually a shorter version of the name."
      },
      "totalSupply()": {
        "details": "See {IERC20-totalSupply}."
      },
      "transfer(address,uint256)": {
        "details": "See {IERC20-transfer}. Requirements: - `to` cannot be the zero address. - the caller must have a balance of at least `amount`."
      },
      "transferFrom(address,address,uint256)": {
        "details": "See {IERC20-transferFrom}. Emits an {Approval} event indicating the updated allowance. This is not required by the EIP. See the note at the beginning of {ERC20}. NOTE: Does not update the allowance if the current allowance is the maximum `uint256`. Requirements: - `from` and `to` cannot be the zero address. - `from` must have a balance of at least `amount`. - the caller must have allowance for ``from``'s tokens of at least `amount`."
      },
      "upgradeTo(address)": {
        "details": "Upgrade the implementation of the proxy to `newImplementation`. Calls {_authorizeUpgrade}. Emits an {Upgraded} event."
      },
      "upgradeToAndCall(address,bytes)": {
        "details": "Upgrade the implementation of the proxy to `newImplementation`, and subsequently execute the function call encoded in `data`. Calls {_authorizeUpgrade}. Emits an {Upgraded} event."
      }
    },
    "version": 1
  },
  "userdoc": {
    "kind": "user",
    "methods": {},
    "version": 1
  },
  "storageLayout": {
    "storage": [
      {
        "astId": 4045,
        "contract": "contracts/wizard/ApocryphToken.sol:ApocryphToken",
        "label": "_initialized",
        "offset": 0,
        "slot": "0",
        "type": "t_bool"
      },
      {
        "astId": 4048,
        "contract": "contracts/wizard/ApocryphToken.sol:ApocryphToken",
        "label": "_initializing",
        "offset": 1,
        "slot": "0",
        "type": "t_bool"
      },
      {
        "astId": 6424,
        "contract": "contracts/wizard/ApocryphToken.sol:ApocryphToken",
        "label": "__gap",
        "offset": 0,
        "slot": "1",
        "type": "t_array(t_uint256)50_storage"
      },
      {
        "astId": 4267,
        "contract": "contracts/wizard/ApocryphToken.sol:ApocryphToken",
        "label": "_balances",
        "offset": 0,
        "slot": "51",
        "type": "t_mapping(t_address,t_uint256)"
      },
      {
        "astId": 4273,
        "contract": "contracts/wizard/ApocryphToken.sol:ApocryphToken",
        "label": "_allowances",
        "offset": 0,
        "slot": "52",
        "type": "t_mapping(t_address,t_mapping(t_address,t_uint256))"
      },
      {
        "astId": 4275,
        "contract": "contracts/wizard/ApocryphToken.sol:ApocryphToken",
        "label": "_totalSupply",
        "offset": 0,
        "slot": "53",
        "type": "t_uint256"
      },
      {
        "astId": 4277,
        "contract": "contracts/wizard/ApocryphToken.sol:ApocryphToken",
        "label": "_name",
        "offset": 0,
        "slot": "54",
        "type": "t_string_storage"
      },
      {
        "astId": 4279,
        "contract": "contracts/wizard/ApocryphToken.sol:ApocryphToken",
        "label": "_symbol",
        "offset": 0,
        "slot": "55",
        "type": "t_string_storage"
      },
      {
        "astId": 4860,
        "contract": "contracts/wizard/ApocryphToken.sol:ApocryphToken",
        "label": "__gap",
        "offset": 0,
        "slot": "56",
        "type": "t_array(t_uint256)45_storage"
      },
      {
        "astId": 7392,
        "contract": "contracts/wizard/ApocryphToken.sol:ApocryphToken",
        "label": "_HASHED_NAME",
        "offset": 0,
        "slot": "101",
        "type": "t_bytes32"
      },
      {
        "astId": 7394,
        "contract": "contracts/wizard/ApocryphToken.sol:ApocryphToken",
        "label": "_HASHED_VERSION",
        "offset": 0,
        "slot": "102",
        "type": "t_bytes32"
      },
      {
        "astId": 7532,
        "contract": "contracts/wizard/ApocryphToken.sol:ApocryphToken",
        "label": "__gap",
        "offset": 0,
        "slot": "103",
        "type": "t_array(t_uint256)50_storage"
      },
      {
        "astId": 5711,
        "contract": "contracts/wizard/ApocryphToken.sol:ApocryphToken",
        "label": "_nonces",
        "offset": 0,
        "slot": "153",
        "type": "t_mapping(t_address,t_struct(Counter)6431_storage)"
      },
      {
        "astId": 5713,
        "contract": "contracts/wizard/ApocryphToken.sol:ApocryphToken",
        "label": "_PERMIT_TYPEHASH",
        "offset": 0,
        "slot": "154",
        "type": "t_bytes32"
      },
      {
        "astId": 5879,
        "contract": "contracts/wizard/ApocryphToken.sol:ApocryphToken",
        "label": "__gap",
        "offset": 0,
        "slot": "155",
        "type": "t_array(t_uint256)49_storage"
      },
      {
        "astId": 7576,
        "contract": "contracts/wizard/ApocryphToken.sol:ApocryphToken",
        "label": "__gap",
        "offset": 0,
        "slot": "204",
        "type": "t_array(t_uint256)50_storage"
      },
      {
        "astId": 39,
        "contract": "contracts/wizard/ApocryphToken.sol:ApocryphToken",
        "label": "_roles",
        "offset": 0,
        "slot": "254",
        "type": "t_mapping(t_bytes32,t_struct(RoleData)34_storage)"
      },
      {
        "astId": 327,
        "contract": "contracts/wizard/ApocryphToken.sol:ApocryphToken",
        "label": "__gap",
        "offset": 0,
        "slot": "255",
        "type": "t_array(t_uint256)49_storage"
      },
      {
        "astId": 4027,
        "contract": "contracts/wizard/ApocryphToken.sol:ApocryphToken",
        "label": "__gap",
        "offset": 0,
        "slot": "304",
        "type": "t_array(t_uint256)50_storage"
      },
      {
        "astId": 4247,
        "contract": "contracts/wizard/ApocryphToken.sol:ApocryphToken",
        "label": "__gap",
        "offset": 0,
        "slot": "354",
        "type": "t_array(t_uint256)50_storage"
      }
    ],
    "types": {
      "t_address": {
        "encoding": "inplace",
        "label": "address",
        "numberOfBytes": "20"
      },
      "t_array(t_uint256)45_storage": {
        "base": "t_uint256",
        "encoding": "inplace",
        "label": "uint256[45]",
        "numberOfBytes": "1440"
      },
      "t_array(t_uint256)49_storage": {
        "base": "t_uint256",
        "encoding": "inplace",
        "label": "uint256[49]",
        "numberOfBytes": "1568"
      },
      "t_array(t_uint256)50_storage": {
        "base": "t_uint256",
        "encoding": "inplace",
        "label": "uint256[50]",
        "numberOfBytes": "1600"
      },
      "t_bool": {
        "encoding": "inplace",
        "label": "bool",
        "numberOfBytes": "1"
      },
      "t_bytes32": {
        "encoding": "inplace",
        "label": "bytes32",
        "numberOfBytes": "32"
      },
      "t_mapping(t_address,t_bool)": {
        "encoding": "mapping",
        "key": "t_address",
        "label": "mapping(address => bool)",
        "numberOfBytes": "32",
        "value": "t_bool"
      },
      "t_mapping(t_address,t_mapping(t_address,t_uint256))": {
        "encoding": "mapping",
        "key": "t_address",
        "label": "mapping(address => mapping(address => uint256))",
        "numberOfBytes": "32",
        "value": "t_mapping(t_address,t_uint256)"
      },
      "t_mapping(t_address,t_struct(Counter)6431_storage)": {
        "encoding": "mapping",
        "key": "t_address",
        "label": "mapping(address => struct CountersUpgradeable.Counter)",
        "numberOfBytes": "32",
        "value": "t_struct(Counter)6431_storage"
      },
      "t_mapping(t_address,t_uint256)": {
        "encoding": "mapping",
        "key": "t_address",
        "label": "mapping(address => uint256)",
        "numberOfBytes": "32",
        "value": "t_uint256"
      },
      "t_mapping(t_bytes32,t_struct(RoleData)34_storage)": {
        "encoding": "mapping",
        "key": "t_bytes32",
        "label": "mapping(bytes32 => struct AccessControlUpgradeable.RoleData)",
        "numberOfBytes": "32",
        "value": "t_struct(RoleData)34_storage"
      },
      "t_string_storage": {
        "encoding": "bytes",
        "label": "string",
        "numberOfBytes": "32"
      },
      "t_struct(Counter)6431_storage": {
        "encoding": "inplace",
        "label": "struct CountersUpgradeable.Counter",
        "members": [
          {
            "astId": 6430,
            "contract": "contracts/wizard/ApocryphToken.sol:ApocryphToken",
            "label": "_value",
            "offset": 0,
            "slot": "0",
            "type": "t_uint256"
          }
        ],
        "numberOfBytes": "32"
      },
      "t_struct(RoleData)34_storage": {
        "encoding": "inplace",
        "label": "struct AccessControlUpgradeable.RoleData",
        "members": [
          {
            "astId": 31,
            "contract": "contracts/wizard/ApocryphToken.sol:ApocryphToken",
            "label": "members",
            "offset": 0,
            "slot": "0",
            "type": "t_mapping(t_address,t_bool)"
          },
          {
            "astId": 33,
            "contract": "contracts/wizard/ApocryphToken.sol:ApocryphToken",
            "label": "adminRole",
            "offset": 0,
            "slot": "1",
            "type": "t_bytes32"
          }
        ],
        "numberOfBytes": "64"
      },
      "t_uint256": {
        "encoding": "inplace",
        "label": "uint256",
        "numberOfBytes": "32"
      }
    }
  }
}