{
  "address": "0xD47608e824ff0299457341964c1b35c449C854A0",
  "abi": [
    {
      "inputs": [],
      "stateMutability": "nonpayable",
      "type": "constructor"
    },
    {
      "anonymous": false,
      "inputs": [
        {
          "indexed": false,
          "internalType": "address",
          "name": "previousAdmin",
          "type": "address"
        },
        {
          "indexed": false,
          "internalType": "address",
          "name": "newAdmin",
          "type": "address"
        }
      ],
      "name": "AdminChanged",
      "type": "event"
    },
    {
      "anonymous": false,
      "inputs": [
        {
          "indexed": true,
          "internalType": "address",
          "name": "beacon",
          "type": "address"
        }
      ],
      "name": "BeaconUpgraded",
      "type": "event"
    },
    {
      "anonymous": false,
      "inputs": [
        {
          "indexed": true,
          "internalType": "address",
          "name": "token",
          "type": "address"
        },
        {
          "indexed": false,
          "internalType": "uint256",
          "name": "amount",
          "type": "uint256"
        }
      ],
      "name": "ERC20Released",
      "type": "event"
    },
    {
      "anonymous": false,
      "inputs": [
        {
          "indexed": false,
          "internalType": "uint256",
          "name": "amount",
          "type": "uint256"
        }
      ],
      "name": "EtherReleased",
      "type": "event"
    },
    {
      "anonymous": false,
      "inputs": [
        {
          "indexed": true,
          "internalType": "bytes32",
          "name": "role",
          "type": "bytes32"
        },
        {
          "indexed": true,
          "internalType": "bytes32",
          "name": "previousAdminRole",
          "type": "bytes32"
        },
        {
          "indexed": true,
          "internalType": "bytes32",
          "name": "newAdminRole",
          "type": "bytes32"
        }
      ],
      "name": "RoleAdminChanged",
      "type": "event"
    },
    {
      "anonymous": false,
      "inputs": [
        {
          "indexed": true,
          "internalType": "bytes32",
          "name": "role",
          "type": "bytes32"
        },
        {
          "indexed": true,
          "internalType": "address",
          "name": "account",
          "type": "address"
        },
        {
          "indexed": true,
          "internalType": "address",
          "name": "sender",
          "type": "address"
        }
      ],
      "name": "RoleGranted",
      "type": "event"
    },
    {
      "anonymous": false,
      "inputs": [
        {
          "indexed": true,
          "internalType": "bytes32",
          "name": "role",
          "type": "bytes32"
        },
        {
          "indexed": true,
          "internalType": "address",
          "name": "account",
          "type": "address"
        },
        {
          "indexed": true,
          "internalType": "address",
          "name": "sender",
          "type": "address"
        }
      ],
      "name": "RoleRevoked",
      "type": "event"
    },
    {
      "anonymous": false,
      "inputs": [
        {
          "indexed": true,
          "internalType": "address",
          "name": "implementation",
          "type": "address"
        }
      ],
      "name": "Upgraded",
      "type": "event"
    },
    {
      "inputs": [],
      "name": "DEFAULT_ADMIN_ROLE",
      "outputs": [
        {
          "internalType": "bytes32",
          "name": "",
          "type": "bytes32"
        }
      ],
      "stateMutability": "view",
      "type": "function"
    },
    {
      "inputs": [],
      "name": "UPGRADER_ROLE",
      "outputs": [
        {
          "internalType": "bytes32",
          "name": "",
          "type": "bytes32"
        }
      ],
      "stateMutability": "view",
      "type": "function"
    },
    {
      "inputs": [],
      "name": "beneficiary",
      "outputs": [
        {
          "internalType": "address",
          "name": "",
          "type": "address"
        }
      ],
      "stateMutability": "view",
      "type": "function"
    },
    {
      "inputs": [],
      "name": "duration",
      "outputs": [
        {
          "internalType": "uint256",
          "name": "",
          "type": "uint256"
        }
      ],
      "stateMutability": "view",
      "type": "function"
    },
    {
      "inputs": [
        {
          "internalType": "bytes32",
          "name": "role",
          "type": "bytes32"
        }
      ],
      "name": "getRoleAdmin",
      "outputs": [
        {
          "internalType": "bytes32",
          "name": "",
          "type": "bytes32"
        }
      ],
      "stateMutability": "view",
      "type": "function"
    },
    {
      "inputs": [
        {
          "internalType": "bytes32",
          "name": "role",
          "type": "bytes32"
        },
        {
          "internalType": "address",
          "name": "account",
          "type": "address"
        }
      ],
      "name": "grantRole",
      "outputs": [],
      "stateMutability": "nonpayable",
      "type": "function"
    },
    {
      "inputs": [
        {
          "internalType": "bytes32",
          "name": "role",
          "type": "bytes32"
        },
        {
          "internalType": "address",
          "name": "account",
          "type": "address"
        }
      ],
      "name": "hasRole",
      "outputs": [
        {
          "internalType": "bool",
          "name": "",
          "type": "bool"
        }
      ],
      "stateMutability": "view",
      "type": "function"
    },
    {
      "inputs": [
        {
          "internalType": "address",
          "name": "owner",
          "type": "address"
        },
        {
          "internalType": "address",
          "name": "beneficiary",
          "type": "address"
        },
        {
          "internalType": "uint64",
          "name": "startTimestamp",
          "type": "uint64"
        },
        {
          "internalType": "uint64",
          "name": "durationSeconds",
          "type": "uint64"
        },
        {
          "internalType": "uint64",
          "name": "installments",
          "type": "uint64"
        }
      ],
      "name": "initialize",
      "outputs": [],
      "stateMutability": "nonpayable",
      "type": "function"
    },
    {
      "inputs": [],
      "name": "installments",
      "outputs": [
        {
          "internalType": "uint256",
          "name": "",
          "type": "uint256"
        }
      ],
      "stateMutability": "view",
      "type": "function"
    },
    {
      "inputs": [],
      "name": "proxiableUUID",
      "outputs": [
        {
          "internalType": "bytes32",
          "name": "",
          "type": "bytes32"
        }
      ],
      "stateMutability": "view",
      "type": "function"
    },
    {
      "inputs": [
        {
          "internalType": "address",
          "name": "token",
          "type": "address"
        }
      ],
      "name": "release",
      "outputs": [],
      "stateMutability": "nonpayable",
      "type": "function"
    },
    {
      "inputs": [],
      "name": "release",
      "outputs": [],
      "stateMutability": "nonpayable",
      "type": "function"
    },
    {
      "inputs": [],
      "name": "released",
      "outputs": [
        {
          "internalType": "uint256",
          "name": "",
          "type": "uint256"
        }
      ],
      "stateMutability": "view",
      "type": "function"
    },
    {
      "inputs": [
        {
          "internalType": "address",
          "name": "token",
          "type": "address"
        }
      ],
      "name": "released",
      "outputs": [
        {
          "internalType": "uint256",
          "name": "",
          "type": "uint256"
        }
      ],
      "stateMutability": "view",
      "type": "function"
    },
    {
      "inputs": [
        {
          "internalType": "bytes32",
          "name": "role",
          "type": "bytes32"
        },
        {
          "internalType": "address",
          "name": "account",
          "type": "address"
        }
      ],
      "name": "renounceRole",
      "outputs": [],
      "stateMutability": "nonpayable",
      "type": "function"
    },
    {
      "inputs": [
        {
          "internalType": "bytes32",
          "name": "role",
          "type": "bytes32"
        },
        {
          "internalType": "address",
          "name": "account",
          "type": "address"
        }
      ],
      "name": "revokeRole",
      "outputs": [],
      "stateMutability": "nonpayable",
      "type": "function"
    },
    {
      "inputs": [],
      "name": "start",
      "outputs": [
        {
          "internalType": "uint256",
          "name": "",
          "type": "uint256"
        }
      ],
      "stateMutability": "view",
      "type": "function"
    },
    {
      "inputs": [
        {
          "internalType": "bytes4",
          "name": "interfaceId",
          "type": "bytes4"
        }
      ],
      "name": "supportsInterface",
      "outputs": [
        {
          "internalType": "bool",
          "name": "",
          "type": "bool"
        }
      ],
      "stateMutability": "view",
      "type": "function"
    },
    {
      "inputs": [
        {
          "internalType": "address",
          "name": "newImplementation",
          "type": "address"
        }
      ],
      "name": "upgradeTo",
      "outputs": [],
      "stateMutability": "nonpayable",
      "type": "function"
    },
    {
      "inputs": [
        {
          "internalType": "address",
          "name": "newImplementation",
          "type": "address"
        },
        {
          "internalType": "bytes",
          "name": "data",
          "type": "bytes"
        }
      ],
      "name": "upgradeToAndCall",
      "outputs": [],
      "stateMutability": "payable",
      "type": "function"
    },
    {
      "inputs": [
        {
          "internalType": "uint64",
          "name": "timestamp",
          "type": "uint64"
        }
      ],
      "name": "vestedAmount",
      "outputs": [
        {
          "internalType": "uint256",
          "name": "",
          "type": "uint256"
        }
      ],
      "stateMutability": "view",
      "type": "function"
    },
    {
      "inputs": [
        {
          "internalType": "address",
          "name": "token",
          "type": "address"
        },
        {
          "internalType": "uint64",
          "name": "timestamp",
          "type": "uint64"
        }
      ],
      "name": "vestedAmount",
      "outputs": [
        {
          "internalType": "uint256",
          "name": "",
          "type": "uint256"
        }
      ],
      "stateMutability": "view",
      "type": "function"
    },
    {
      "stateMutability": "payable",
      "type": "receive"
    }
  ],
  "numDeployments": 2,
  "solcInputHash": "400c3f58dc7fd73ee414b3925d41d1a4",
  "bytecode": "0x60a06040523060601b6080523480156200001857600080fd5b50600054610100900460ff16620000365760005460ff161562000040565b62000040620000e5565b620000a85760405162461bcd60e51b815260206004820152602e60248201527f496e697469616c697a61626c653a20636f6e747261637420697320616c72656160448201526d191e481a5b9a5d1a585b1a5e995960921b606482015260840160405180910390fd5b600054610100900460ff16158015620000cb576000805461ffff19166101011790555b8015620000de576000805461ff00191690555b5062000112565b6000620000fd306200010360201b62000cd21760201c565b15905090565b6001600160a01b03163b151590565b60805160601c6121746200014d600039600081816106a40152818161072901528181610820015281816108a5015261098b01526121746000f3fe6080604052600436106101795760003560e01c806352d1902d116100cb5780639852595c1161007f578063d148f66011610059578063d148f66014610429578063d547741f14610449578063f72c0d8b1461046957600080fd5b80639852595c146103b8578063a217fddf146103ee578063be9a65551461040357600080fd5b806386d1a69f116100b057806386d1a69f1461034857806391d148541461035d57806396132521146103a357600080fd5b806352d1902d14610313578063810ec23b1461032857600080fd5b80632f2ff15d1161012d5780633659cfe6116101075780633659cfe6146102b857806338af3eed146102d85780634f1ef2861461030057600080fd5b80632f2ff15d146102595780632f34a3d71461027957806336568abe1461029857600080fd5b80630fb5a6b41161015e5780630fb5a6b4146101e85780631916558714610207578063248a9ca31461022957600080fd5b806301ffc9a7146101855780630a17b06b146101ba57600080fd5b3661018057005b600080fd5b34801561019157600080fd5b506101a56101a0366004611f28565b61049d565b60405190151581526020015b60405180910390f35b3480156101c657600080fd5b506101da6101d5366004611f50565b610506565b6040519081526020016101b1565b3480156101f457600080fd5b50609a5467ffffffffffffffff166101da565b34801561021357600080fd5b50610227610222366004611d49565b610524565b005b34801561023557600080fd5b506101da610244366004611ed6565b60009081526065602052604090206001015490565b34801561026557600080fd5b50610227610274366004611f06565b6105e1565b34801561028557600080fd5b5060cb5467ffffffffffffffff166101da565b3480156102a457600080fd5b506102276102b3366004611f06565b61060c565b3480156102c457600080fd5b506102276102d3366004611d49565b610699565b3480156102e457600080fd5b506099546040516001600160a01b0390911681526020016101b1565b61022761030e366004611dc7565b610815565b34801561031f57600080fd5b506101da61097e565b34801561033457600080fd5b506101da610343366004611e84565b610a43565b34801561035457600080fd5b50610227610b01565b34801561036957600080fd5b506101a5610378366004611f06565b60009182526065602090815260408084206001600160a01b0393909316845291905290205460ff1690565b3480156103af57600080fd5b506097546101da565b3480156103c457600080fd5b506101da6103d3366004611d49565b6001600160a01b031660009081526098602052604090205490565b3480156103fa57600080fd5b506101da600081565b34801561040f57600080fd5b50609954600160a01b900467ffffffffffffffff166101da565b34801561043557600080fd5b50610227610444366004611d63565b610b86565b34801561045557600080fd5b50610227610464366004611f06565b610cac565b34801561047557600080fd5b506101da7f189ab7a9244df0848122154315af71fe140f3db0fe014031783b0946b8c9d2e381565b60006001600160e01b031982167f7965db0b00000000000000000000000000000000000000000000000000000000148061050057507f01ffc9a7000000000000000000000000000000000000000000000000000000006001600160e01b03198316145b92915050565b600061050061051460975490565b61051e904761203a565b83610ce1565b6001600160a01b0381166000908152609860205260408120546105478342610a43565b6105519190612091565b6001600160a01b03831660009081526098602052604081208054929350839290919061057e90849061203a565b90915550506040518181526001600160a01b038316907fc0e523490dd523c33b1878c9eb14ff46991e3f5b2cd33710918618f2a39cba1b9060200160405180910390a26105dd826105d76099546001600160a01b031690565b83610ced565b5050565b6000828152606560205260409020600101546105fd8133610d6d565b6106078383610ded565b505050565b6001600160a01b038116331461068f5760405162461bcd60e51b815260206004820152602f60248201527f416363657373436f6e74726f6c3a2063616e206f6e6c792072656e6f756e636560448201527f20726f6c657320666f722073656c66000000000000000000000000000000000060648201526084015b60405180910390fd5b6105dd8282610e8f565b306001600160a01b037f00000000000000000000000000000000000000000000000000000000000000001614156107275760405162461bcd60e51b815260206004820152602c60248201527f46756e6374696f6e206d7573742062652063616c6c6564207468726f7567682060448201526b19195b1959d85d1958d85b1b60a21b6064820152608401610686565b7f00000000000000000000000000000000000000000000000000000000000000006001600160a01b03166107827f360894a13ba1a3210667c828492db98dca3e2076cc3735a920a3ca505d382bbc546001600160a01b031690565b6001600160a01b0316146107ed5760405162461bcd60e51b815260206004820152602c60248201527f46756e6374696f6e206d7573742062652063616c6c6564207468726f7567682060448201526b6163746976652070726f787960a01b6064820152608401610686565b6107f681610f12565b6040805160008082526020820190925261081291839190610f3d565b50565b306001600160a01b037f00000000000000000000000000000000000000000000000000000000000000001614156108a35760405162461bcd60e51b815260206004820152602c60248201527f46756e6374696f6e206d7573742062652063616c6c6564207468726f7567682060448201526b19195b1959d85d1958d85b1b60a21b6064820152608401610686565b7f00000000000000000000000000000000000000000000000000000000000000006001600160a01b03166108fe7f360894a13ba1a3210667c828492db98dca3e2076cc3735a920a3ca505d382bbc546001600160a01b031690565b6001600160a01b0316146109695760405162461bcd60e51b815260206004820152602c60248201527f46756e6374696f6e206d7573742062652063616c6c6564207468726f7567682060448201526b6163746976652070726f787960a01b6064820152608401610686565b61097282610f12565b6105dd82826001610f3d565b6000306001600160a01b037f00000000000000000000000000000000000000000000000000000000000000001614610a1e5760405162461bcd60e51b815260206004820152603860248201527f555550535570677261646561626c653a206d757374206e6f742062652063616c60448201527f6c6564207468726f7567682064656c656761746563616c6c00000000000000006064820152608401610686565b507f360894a13ba1a3210667c828492db98dca3e2076cc3735a920a3ca505d382bbc90565b6001600160a01b038216600090815260986020526040812054610afa906040517f70a082310000000000000000000000000000000000000000000000000000000081523060048201526001600160a01b038616906370a082319060240160206040518083038186803b158015610ab857600080fd5b505afa158015610acc573d6000803e3d6000fd5b505050506040513d601f19601f82011682018060405250810190610af09190611eee565b61051e919061203a565b9392505050565b6000610b0c60975490565b610b1542610506565b610b1f9190612091565b90508060976000828254610b33919061203a565b90915550506040518181527fda9d4e5f101b8b9b1c5b76d0c5a9f7923571acfc02376aa076b75a8c080c956b9060200160405180910390a1610812610b806099546001600160a01b031690565b826110ec565b600054610100900460ff16610ba15760005460ff1615610ba5565b303b155b610c175760405162461bcd60e51b815260206004820152602e60248201527f496e697469616c697a61626c653a20636f6e747261637420697320616c72656160448201527f647920696e697469616c697a65640000000000000000000000000000000000006064820152608401610686565b600054610100900460ff16158015610c39576000805461ffff19166101011790555b610c44858585611205565b610c4d8261127b565b610c556112ef565b610c5d6112ef565b610c68600087610ded565b610c927f189ab7a9244df0848122154315af71fe140f3db0fe014031783b0946b8c9d2e387610ded565b8015610ca4576000805461ff00191690555b505050505050565b600082815260656020526040902060010154610cc88133610d6d565b6106078383610e8f565b6001600160a01b03163b151590565b6000610afa838361135c565b604080516001600160a01b038416602482015260448082018490528251808303909101815260649091019091526020810180517bffffffffffffffffffffffffffffffffffffffffffffffffffffffff167fa9059cbb0000000000000000000000000000000000000000000000000000000017905261060790849061145e565b60008281526065602090815260408083206001600160a01b038516845290915290205460ff166105dd57610dab816001600160a01b03166014611543565b610db6836020611543565b604051602001610dc7929190611f86565b60408051601f198184030181529082905262461bcd60e51b825261068691600401612007565b60008281526065602090815260408083206001600160a01b038516845290915290205460ff166105dd5760008281526065602090815260408083206001600160a01b03851684529091529020805460ff19166001179055610e4b3390565b6001600160a01b0316816001600160a01b0316837f2f8788117e7eff1d82e926ec794901d17c78024a50270940304540a733656f0d60405160405180910390a45050565b60008281526065602090815260408083206001600160a01b038516845290915290205460ff16156105dd5760008281526065602090815260408083206001600160a01b0385168085529252808320805460ff1916905551339285917ff6391f5c32d9c69d2a47ea670b442974b53935d1edc7fd64eb21e047a839171b9190a45050565b7f189ab7a9244df0848122154315af71fe140f3db0fe014031783b0946b8c9d2e36105dd8133610d6d565b7f4910fdfa16fed3260ed0e7147f7cc6da11a60208b5b9406d12a635614ffd91435460ff1615610f70576106078361176a565b826001600160a01b03166352d1902d6040518163ffffffff1660e01b815260040160206040518083038186803b158015610fa957600080fd5b505afa925050508015610fd9575060408051601f3d908101601f19168201909252610fd691810190611eee565b60015b61104b5760405162461bcd60e51b815260206004820152602e60248201527f45524331393637557067726164653a206e657720696d706c656d656e7461746960448201527f6f6e206973206e6f7420555550530000000000000000000000000000000000006064820152608401610686565b7f360894a13ba1a3210667c828492db98dca3e2076cc3735a920a3ca505d382bbc81146110e05760405162461bcd60e51b815260206004820152602960248201527f45524331393637557067726164653a20756e737570706f727465642070726f7860448201527f6961626c655555494400000000000000000000000000000000000000000000006064820152608401610686565b50610607838383611840565b8047101561113c5760405162461bcd60e51b815260206004820152601d60248201527f416464726573733a20696e73756666696369656e742062616c616e63650000006044820152606401610686565b6000826001600160a01b03168260405160006040518083038185875af1925050503d8060008114611189576040519150601f19603f3d011682016040523d82523d6000602084013e61118e565b606091505b50509050806106075760405162461bcd60e51b815260206004820152603a60248201527f416464726573733a20756e61626c6520746f2073656e642076616c75652c207260448201527f6563697069656e74206d617920686176652072657665727465640000000000006064820152608401610686565b600054610100900460ff166112705760405162461bcd60e51b815260206004820152602b60248201527f496e697469616c697a61626c653a20636f6e7472616374206973206e6f74206960448201526a6e697469616c697a696e6760a81b6064820152608401610686565b61060783838361186b565b600054610100900460ff166112e65760405162461bcd60e51b815260206004820152602b60248201527f496e697469616c697a61626c653a20636f6e7472616374206973206e6f74206960448201526a6e697469616c697a696e6760a81b6064820152608401610686565b610812816119a3565b600054610100900460ff1661135a5760405162461bcd60e51b815260206004820152602b60248201527f496e697469616c697a61626c653a20636f6e7472616374206973206e6f74206960448201526a6e697469616c697a696e6760a81b6064820152608401610686565b565b609954600090600160a01b900467ffffffffffffffff168267ffffffffffffffff16101561138c57506000610500565b609a5467ffffffffffffffff16609954600160a01b900467ffffffffffffffff166113b7919061203a565b8267ffffffffffffffff1611156113cf575081610500565b60006113e4609a5467ffffffffffffffff1690565b60cb5467ffffffffffffffff16609954600160a01b900467ffffffffffffffff166114199067ffffffffffffffff8716612091565b6114239190612072565b61142d9190612052565b905061144260cb5467ffffffffffffffff1690565b61144c8286612072565b6114569190612052565b915050610500565b60006114b3826040518060400160405280602081526020017f5361666545524332303a206c6f772d6c6576656c2063616c6c206661696c6564815250856001600160a01b0316611a329092919063ffffffff16565b80519091501561060757808060200190518101906114d19190611eb6565b6106075760405162461bcd60e51b815260206004820152602a60248201527f5361666545524332303a204552433230206f7065726174696f6e20646964206e60448201527f6f742073756363656564000000000000000000000000000000000000000000006064820152608401610686565b60606000611552836002612072565b61155d90600261203a565b67ffffffffffffffff81111561158357634e487b7160e01b600052604160045260246000fd5b6040519080825280601f01601f1916602001820160405280156115ad576020820181803683370190505b5090507f3000000000000000000000000000000000000000000000000000000000000000816000815181106115f257634e487b7160e01b600052603260045260246000fd5b60200101906001600160f81b031916908160001a9053507f78000000000000000000000000000000000000000000000000000000000000008160018151811061164b57634e487b7160e01b600052603260045260246000fd5b60200101906001600160f81b031916908160001a905350600061166f846002612072565b61167a90600161203a565b90505b600181111561171b577f303132333435363738396162636465660000000000000000000000000000000085600f16601081106116c957634e487b7160e01b600052603260045260246000fd5b1a60f81b8282815181106116ed57634e487b7160e01b600052603260045260246000fd5b60200101906001600160f81b031916908160001a90535060049490941c93611714816120d4565b905061167d565b508315610afa5760405162461bcd60e51b815260206004820181905260248201527f537472696e67733a20686578206c656e67746820696e73756666696369656e746044820152606401610686565b6001600160a01b0381163b6117e75760405162461bcd60e51b815260206004820152602d60248201527f455243313936373a206e657720696d706c656d656e746174696f6e206973206e60448201527f6f74206120636f6e7472616374000000000000000000000000000000000000006064820152608401610686565b7f360894a13ba1a3210667c828492db98dca3e2076cc3735a920a3ca505d382bbc80547fffffffffffffffffffffffff0000000000000000000000000000000000000000166001600160a01b0392909216919091179055565b61184983611a49565b6000825111806118565750805b15610607576118658383611a89565b50505050565b600054610100900460ff166118d65760405162461bcd60e51b815260206004820152602b60248201527f496e697469616c697a61626c653a20636f6e7472616374206973206e6f74206960448201526a6e697469616c697a696e6760a81b6064820152608401610686565b6001600160a01b0383166119525760405162461bcd60e51b815260206004820152602a60248201527f56657374696e6757616c6c65743a2062656e6566696369617279206973207a6560448201527f726f2061646472657373000000000000000000000000000000000000000000006064820152608401610686565b609980546001600160a01b03949094166001600160e01b031990941693909317600160a01b67ffffffffffffffff9384160217909255609a805467ffffffffffffffff191692909116919091179055565b600054610100900460ff16611a0e5760405162461bcd60e51b815260206004820152602b60248201527f496e697469616c697a61626c653a20636f6e7472616374206973206e6f74206960448201526a6e697469616c697a696e6760a81b6064820152608401610686565b60cb805467ffffffffffffffff191667ffffffffffffffff92909216919091179055565b6060611a418484600085611b94565b949350505050565b611a528161176a565b6040516001600160a01b038216907fbc7cd75a20ee27fd9adebab32041f755214dbc6bffa90cc0225b39da2e5c2d3b90600090a250565b60606001600160a01b0383163b611b085760405162461bcd60e51b815260206004820152602660248201527f416464726573733a2064656c65676174652063616c6c20746f206e6f6e2d636f60448201527f6e747261637400000000000000000000000000000000000000000000000000006064820152608401610686565b600080846001600160a01b031684604051611b239190611f6a565b600060405180830381855af49150503d8060008114611b5e576040519150601f19603f3d011682016040523d82523d6000602084013e611b63565b606091505b5091509150611b8b828260405180606001604052806027815260200161211860279139611cdc565b95945050505050565b606082471015611c0c5760405162461bcd60e51b815260206004820152602660248201527f416464726573733a20696e73756666696369656e742062616c616e636520666f60448201527f722063616c6c00000000000000000000000000000000000000000000000000006064820152608401610686565b6001600160a01b0385163b611c635760405162461bcd60e51b815260206004820152601d60248201527f416464726573733a2063616c6c20746f206e6f6e2d636f6e74726163740000006044820152606401610686565b600080866001600160a01b03168587604051611c7f9190611f6a565b60006040518083038185875af1925050503d8060008114611cbc576040519150601f19603f3d011682016040523d82523d6000602084013e611cc1565b606091505b5091509150611cd1828286611cdc565b979650505050505050565b60608315611ceb575081610afa565b825115611cfb5782518084602001fd5b8160405162461bcd60e51b81526004016106869190612007565b80356001600160a01b0381168114611d2c57600080fd5b919050565b803567ffffffffffffffff81168114611d2c57600080fd5b600060208284031215611d5a578081fd5b610afa82611d15565b600080600080600060a08688031215611d7a578081fd5b611d8386611d15565b9450611d9160208701611d15565b9350611d9f60408701611d31565b9250611dad60608701611d31565b9150611dbb60808701611d31565b90509295509295909350565b60008060408385031215611dd9578182fd5b611de283611d15565b9150602083013567ffffffffffffffff80821115611dfe578283fd5b818501915085601f830112611e11578283fd5b813581811115611e2357611e23612101565b604051601f8201601f19908116603f01168101908382118183101715611e4b57611e4b612101565b81604052828152886020848701011115611e63578586fd5b82602086016020830137856020848301015280955050505050509250929050565b60008060408385031215611e96578182fd5b611e9f83611d15565b9150611ead60208401611d31565b90509250929050565b600060208284031215611ec7578081fd5b81518015158114610afa578182fd5b600060208284031215611ee7578081fd5b5035919050565b600060208284031215611eff578081fd5b5051919050565b60008060408385031215611f18578182fd5b82359150611ead60208401611d15565b600060208284031215611f39578081fd5b81356001600160e01b031981168114610afa578182fd5b600060208284031215611f61578081fd5b610afa82611d31565b60008251611f7c8184602087016120a8565b9190910192915050565b7f416363657373436f6e74726f6c3a206163636f756e7420000000000000000000815260008351611fbe8160178501602088016120a8565b7f206973206d697373696e6720726f6c65200000000000000000000000000000006017918401918201528351611ffb8160288401602088016120a8565b01602801949350505050565b60208152600082518060208401526120268160408501602087016120a8565b601f01601f19169190910160400192915050565b6000821982111561204d5761204d6120eb565b500190565b60008261206d57634e487b7160e01b81526012600452602481fd5b500490565b600081600019048311821515161561208c5761208c6120eb565b500290565b6000828210156120a3576120a36120eb565b500390565b60005b838110156120c35781810151838201526020016120ab565b838111156118655750506000910152565b6000816120e3576120e36120eb565b506000190190565b634e487b7160e01b600052601160045260246000fd5b634e487b7160e01b600052604160045260246000fdfe416464726573733a206c6f772d6c6576656c2064656c65676174652063616c6c206661696c6564a264697066735822122012556de8619ce80afd45036b80d762f94b3769f9b0795a8da4d026419560fc4764736f6c63430008040033",
  "devdoc": {
    "custom:security-contact": "apocryph@comrade.coop",
    "kind": "dev",
    "methods": {
      "beneficiary()": {
        "details": "Getter for the beneficiary address."
      },
      "constructor": {
        "custom:oz-upgrades-unsafe-allow": "constructor"
      },
      "duration()": {
        "details": "Getter for the vesting duration."
      },
      "getRoleAdmin(bytes32)": {
        "details": "Returns the admin role that controls `role`. See {grantRole} and {revokeRole}. To change a role's admin, use {_setRoleAdmin}."
      },
      "grantRole(bytes32,address)": {
        "details": "Grants `role` to `account`. If `account` had not been already granted `role`, emits a {RoleGranted} event. Requirements: - the caller must have ``role``'s admin role."
      },
      "hasRole(bytes32,address)": {
        "details": "Returns `true` if `account` has been granted `role`."
      },
      "proxiableUUID()": {
        "details": "Implementation of the ERC1822 {proxiableUUID} function. This returns the storage slot used by the implementation. It is used to validate that the this implementation remains valid after an upgrade. IMPORTANT: A proxy pointing at a proxiable contract should not be considered proxiable itself, because this risks bricking a proxy that upgrades to it, by delegating to itself until out of gas. Thus it is critical that this function revert if invoked through a proxy. This is guaranteed by the `notDelegated` modifier."
      },
      "release()": {
        "details": "Release the native token (ether) that have already vested. Emits a {TokensReleased} event."
      },
      "release(address)": {
        "details": "Release the tokens that have already vested. Emits a {TokensReleased} event."
      },
      "released()": {
        "details": "Amount of eth already released"
      },
      "released(address)": {
        "details": "Amount of token already released"
      },
      "renounceRole(bytes32,address)": {
        "details": "Revokes `role` from the calling account. Roles are often managed via {grantRole} and {revokeRole}: this function's purpose is to provide a mechanism for accounts to lose their privileges if they are compromised (such as when a trusted device is misplaced). If the calling account had been revoked `role`, emits a {RoleRevoked} event. Requirements: - the caller must be `account`."
      },
      "revokeRole(bytes32,address)": {
        "details": "Revokes `role` from `account`. If `account` had been granted `role`, emits a {RoleRevoked} event. Requirements: - the caller must have ``role``'s admin role."
      },
      "start()": {
        "details": "Getter for the start timestamp."
      },
      "supportsInterface(bytes4)": {
        "details": "See {IERC165-supportsInterface}."
      },
      "upgradeTo(address)": {
        "details": "Upgrade the implementation of the proxy to `newImplementation`. Calls {_authorizeUpgrade}. Emits an {Upgraded} event."
      },
      "upgradeToAndCall(address,bytes)": {
        "details": "Upgrade the implementation of the proxy to `newImplementation`, and subsequently execute the function call encoded in `data`. Calls {_authorizeUpgrade}. Emits an {Upgraded} event."
      },
      "vestedAmount(address,uint64)": {
        "details": "Calculates the amount of tokens that has already vested. Default implementation is a linear vesting curve."
      },
      "vestedAmount(uint64)": {
        "details": "Calculates the amount of ether that has already vested. Default implementation is a linear vesting curve."
      }
    },
    "version": 1
  },
  "userdoc": {
    "kind": "user",
    "methods": {},
    "version": 1
  },
  "storageLayout": {
    "storage": [
      {
        "astId": 4365,
        "contract": "contracts/wizard/ApocryphVesting.sol:ApocryphVesting",
        "label": "_initialized",
        "offset": 0,
        "slot": "0",
        "type": "t_bool"
      },
      {
        "astId": 4368,
        "contract": "contracts/wizard/ApocryphVesting.sol:ApocryphVesting",
        "label": "_initializing",
        "offset": 1,
        "slot": "0",
        "type": "t_bool"
      },
      {
        "astId": 6855,
        "contract": "contracts/wizard/ApocryphVesting.sol:ApocryphVesting",
        "label": "__gap",
        "offset": 0,
        "slot": "1",
        "type": "t_array(t_uint256)50_storage"
      },
      {
        "astId": 8007,
        "contract": "contracts/wizard/ApocryphVesting.sol:ApocryphVesting",
        "label": "__gap",
        "offset": 0,
        "slot": "51",
        "type": "t_array(t_uint256)50_storage"
      },
      {
        "astId": 39,
        "contract": "contracts/wizard/ApocryphVesting.sol:ApocryphVesting",
        "label": "_roles",
        "offset": 0,
        "slot": "101",
        "type": "t_mapping(t_bytes32,t_struct(RoleData)34_storage)"
      },
      {
        "astId": 327,
        "contract": "contracts/wizard/ApocryphVesting.sol:ApocryphVesting",
        "label": "__gap",
        "offset": 0,
        "slot": "102",
        "type": "t_array(t_uint256)49_storage"
      },
      {
        "astId": 549,
        "contract": "contracts/wizard/ApocryphVesting.sol:ApocryphVesting",
        "label": "_released",
        "offset": 0,
        "slot": "151",
        "type": "t_uint256"
      },
      {
        "astId": 553,
        "contract": "contracts/wizard/ApocryphVesting.sol:ApocryphVesting",
        "label": "_erc20Released",
        "offset": 0,
        "slot": "152",
        "type": "t_mapping(t_address,t_uint256)"
      },
      {
        "astId": 555,
        "contract": "contracts/wizard/ApocryphVesting.sol:ApocryphVesting",
        "label": "_beneficiary",
        "offset": 0,
        "slot": "153",
        "type": "t_address"
      },
      {
        "astId": 557,
        "contract": "contracts/wizard/ApocryphVesting.sol:ApocryphVesting",
        "label": "_start",
        "offset": 20,
        "slot": "153",
        "type": "t_uint64"
      },
      {
        "astId": 559,
        "contract": "contracts/wizard/ApocryphVesting.sol:ApocryphVesting",
        "label": "_duration",
        "offset": 0,
        "slot": "154",
        "type": "t_uint64"
      },
      {
        "astId": 844,
        "contract": "contracts/wizard/ApocryphVesting.sol:ApocryphVesting",
        "label": "__gap",
        "offset": 0,
        "slot": "155",
        "type": "t_array(t_uint256)48_storage"
      },
      {
        "astId": 9252,
        "contract": "contracts/wizard/ApocryphVesting.sol:ApocryphVesting",
        "label": "_installments",
        "offset": 0,
        "slot": "203",
        "type": "t_uint64"
      },
      {
        "astId": 9341,
        "contract": "contracts/wizard/ApocryphVesting.sol:ApocryphVesting",
        "label": "__gap",
        "offset": 0,
        "slot": "204",
        "type": "t_array(t_uint256)49_storage"
      },
      {
        "astId": 4347,
        "contract": "contracts/wizard/ApocryphVesting.sol:ApocryphVesting",
        "label": "__gap",
        "offset": 0,
        "slot": "253",
        "type": "t_array(t_uint256)50_storage"
      },
      {
        "astId": 4567,
        "contract": "contracts/wizard/ApocryphVesting.sol:ApocryphVesting",
        "label": "__gap",
        "offset": 0,
        "slot": "303",
        "type": "t_array(t_uint256)50_storage"
      }
    ],
    "types": {
      "t_address": {
        "encoding": "inplace",
        "label": "address",
        "numberOfBytes": "20"
      },
      "t_array(t_uint256)48_storage": {
        "base": "t_uint256",
        "encoding": "inplace",
        "label": "uint256[48]",
        "numberOfBytes": "1536"
      },
      "t_array(t_uint256)49_storage": {
        "base": "t_uint256",
        "encoding": "inplace",
        "label": "uint256[49]",
        "numberOfBytes": "1568"
      },
      "t_array(t_uint256)50_storage": {
        "base": "t_uint256",
        "encoding": "inplace",
        "label": "uint256[50]",
        "numberOfBytes": "1600"
      },
      "t_bool": {
        "encoding": "inplace",
        "label": "bool",
        "numberOfBytes": "1"
      },
      "t_bytes32": {
        "encoding": "inplace",
        "label": "bytes32",
        "numberOfBytes": "32"
      },
      "t_mapping(t_address,t_bool)": {
        "encoding": "mapping",
        "key": "t_address",
        "label": "mapping(address => bool)",
        "numberOfBytes": "32",
        "value": "t_bool"
      },
      "t_mapping(t_address,t_uint256)": {
        "encoding": "mapping",
        "key": "t_address",
        "label": "mapping(address => uint256)",
        "numberOfBytes": "32",
        "value": "t_uint256"
      },
      "t_mapping(t_bytes32,t_struct(RoleData)34_storage)": {
        "encoding": "mapping",
        "key": "t_bytes32",
        "label": "mapping(bytes32 => struct AccessControlUpgradeable.RoleData)",
        "numberOfBytes": "32",
        "value": "t_struct(RoleData)34_storage"
      },
      "t_struct(RoleData)34_storage": {
        "encoding": "inplace",
        "label": "struct AccessControlUpgradeable.RoleData",
        "members": [
          {
            "astId": 31,
            "contract": "contracts/wizard/ApocryphVesting.sol:ApocryphVesting",
            "label": "members",
            "offset": 0,
            "slot": "0",
            "type": "t_mapping(t_address,t_bool)"
          },
          {
            "astId": 33,
            "contract": "contracts/wizard/ApocryphVesting.sol:ApocryphVesting",
            "label": "adminRole",
            "offset": 0,
            "slot": "1",
            "type": "t_bytes32"
          }
        ],
        "numberOfBytes": "64"
      },
      "t_uint256": {
        "encoding": "inplace",
        "label": "uint256",
        "numberOfBytes": "32"
      },
      "t_uint64": {
        "encoding": "inplace",
        "label": "uint64",
        "numberOfBytes": "8"
      }
    }
  }
}